:1000000029C00000F4C0000019C100003EC100007A
:100010003CC000003AC0000038C0000036C00000FC
:1000200034C00000ADC2000066C200003DC2000046
:100030002CC000002AC0000028C0000026C000001C
:1000400024C0000022C0000020C000001EC000002C
:100050001CC0000011241FBECFE5D8E0DEBFCDBF1D
:1000600010E0A0E6B0E0E8EAF8E002C005900D92EA
:10007000A03EB107D9F720E0A0EEB0E001C01D928C
:10008000A23FB207E1F7B8D10DC4BACF379A3F9873
:100090003E9886B1887F86B90895813021F487B172
:1000A000807E816087B9369A349BFECF349A84B1C2
:1000B00095B10895E0E6F0E020EE30E061E070E018
:1000C000808181111BC0838181110BC04AB3CB0198
:1000D000018002C0880F991F0A94E2F7842B8ABB23
:1000E00063C09AB3AB01018002C0440F551F0A944C
:1000F000E2F7842F809589238ABB56C08130D9F4DA
:10010000838181110BC047B3CB01018002C0880FEE
:10011000991F0A94E2F7842B87BB46C097B3AB01C3
:10012000018002C0440F551F0A94E2F7842F809586
:10013000892387BB39C08230D9F4838181110BC0F8
:1001400044B3CB01018002C0880F991F0A94E2F7E3
:10015000842B84BB29C094B3AB01018002C0440F3F
:10016000551F0A94E2F7842F8095892384BB1CC015
:100170008330D1F4838181110BC041B3CB01018065
:1001800002C0880F991F0A94E2F7842B81BB0CC030
:1001900091B3AB01018002C0440F551F0A94E2F7EE
:1001A000842F8095892381BB3496E217F30709F0E9
:1001B00087CF0895A39AA49AC5C10895AB9AAC9825
:1001C0000895880F982F990F990F890FC0C108952E
:1001D000C6C108958BB780648BBF85B7816085BF2A
:1001E00085B7826085BF8FB780688FBF08951F92E3
:1001F0000F920FB60F9211242F933F934F935F935B
:100200006F937F938F939F93AF93BF93EF93FF93DE
:10021000E091E200F091E3000995FF91EF91BF9129
:10022000AF919F918F917F916F915F914F913F918E
:100230002F910F900FBE0F901F9018951F920F9245
:100240000FB60F9211242F933F934F935F936F93A9
:100250007F938F939F93AF93BF93EF93FF93E0911F
:10026000E400F091E5000995FF91EF91BF91AF9106
:100270009F918F917F916F915F914F913F912F91BE
:100280000F900FBE0F901F9018951F920F920FB6F0
:100290000F9211242F933F934F935F936F937F930C
:1002A0008F939F93AF93BF93EF93FF93E091E600FB
:1002B000F091E7000995FF91EF91BF91AF919F9168
:1002C0008F917F916F915F914F913F912F910F90FF
:1002D0000FBE0F901F901895C19AC298C3989BB3F8
:1002E000282F207F9F70922B9BBBC39AE3ECF9E0F1
:1002F0003197F1F700C00000C398E7EAF1E63197C3
:10030000F1F700C000002BB3F0E18F02C00111240F
:10031000922F9F70892B8BBBC39A83EC99E0019736
:10032000F1F700C00000C398E7EAF1E63197F1F772
:1003300000C0000081EE94E00197F1F700C00000DA
:100340000895C198C298C3989BB3282F207F9F70AF
:10035000922B9BBBC39AE3ECF9E03197F1F700C015
:100360000000C398E7EAF1E63197F1F700C000001A
:100370002BB3F0E18F02C0011124922F9F70892BC3
:100380008BBBC39A83EC99E00197F1F700C00000A2
:10039000C398E7EAF1E63197F1F700C0000081EE7B
:1003A00094E00197F1F700C000000895BA9AB99A55
:1003B000BB9AD49AD59AD69AD79A87EA91E60197AA
:1003C000F1F700C0000083E3BCDF82E3BADF88E21C
:1003D000B8DF8CE0B6DF81E0B4DF86E0B2DF82E038
:1003E000B0CF08958091E0009091E1000196909344
:1003F000E1008093E0000895EDDE82EF91E03DD0D2
:10040000D9DE80E0DBDE81E0DCDE3CD0E0D03EDE29
:10041000F7D081E042DECADF83E45EDFA4D008B615
:1004200005FEFDCF27B566B58091E0009091E10013
:1004300070E0620F711D681B790B7093E900609387
:10044000E800072E000C880B990B79D129E23CE3D8
:1004500049EE53E4D9D040D17093EB006093EA00A9
:10046000B7DE8091EA009091EB0007971CF084E1E1
:10047000A8DED4CF8AE0A5DED1CF9093EF008093A1
:10048000EE00089512BE83B7806483BF83B788608F
:1004900083BF83B7887F826083BF89B7816089BF4C
:1004A00089B78D7F89BF08951F920F920FB60F9263
:1004B00011242F933F934F935F936F937F938F9369
:1004C0009F93AF93BF93EF93FF93E091F000F09170
:1004D000F1000995FF91EF91BF91AF919F918F919D
:1004E0007F916F915F914F913F912F910F900FBE30
:1004F0000F901F9018951F920F920FB60F92112414
:100500002F933F934F935F936F937F938F939F931B
:10051000AF93BF93EF93FF93E091EC00F091ED0068
:100520000995FF91EF91BF91AF919F918F917F912D
:100530006F915F914F913F912F910F900FBE0F9050
:100540001F901895BB9A83B7886683BF0895982F2C
:1005500080E064E670E07FD161506CBF089583B79E
:10056000816083BF08951DBC1CBC1FBC89B784601B
:1005700089BF88B7806288BF88B7846088BF0895C4
:100580001F920F920FB60F9211242F933F934F9308
:100590005F936F937F938F939F93AF93BF93EF93EB
:1005A000FF93E091EE00F091EF000995FF91EF913C
:1005B000BF91AF919F918F917F916F915F914F917B
:1005C0003F912F910F900FBE0F901F90189572DDE5
:1005D000549A539A80B5806880BD80B58F7B80BD6A
:1005E00080B58E7F80BD80B58F7D80BD80B58F7ECC
:1005F00080BD80B5877F80BD80B5866080BD089551
:100600005F9BFECF8CB108950CD0EBC0E3D040F0DF
:10061000DAD030F021F45F3F19F0CCC0511115C190
:10062000CFC0F0D098F39923C9F35523B1F3951BAC
:10063000550BBB27AA2762177307840738F09F5F03
:100640005F4F220F331F441FAA1FA9F333D00E2E72
:100650003AF0E0E830D091505040E695001CCAF7DF
:1006600029D0FE2F27D0660F771F881FBB1F2617A4
:1006700037074807AB07B0E809F0BB0B802DBF0177
:10068000FF2793585F4F2AF09E3F510568F092C0B4
:10069000DCC05F3FECF3983EDCF386957795679579
:1006A000B795F7959F5FC9F7880F911D9695879528
:1006B00097F90895E1E0660F771F881FBB1F621747
:1006C00073078407BA0720F0621B730B840BBA0B05
:1006D000EE1F88F7E095089504D06894B111B5C075
:1006E000089598D088F09F5790F0B92F9927B75167
:1006F000A0F0D1F0660F771F881F991F1AF0BA95E6
:10070000C9F712C0B13081F09FD0B1E008959CC00C
:10071000672F782F8827B85F39F0B93FCCF38695DB
:1007200077956795B395D9F73EF490958095709538
:1007300061957F4F8F4F9F4F0895E89409C097FBB5
:100740003EF490958095709561957F4F8F4F9F4FA8
:100750009923A9F0F92F96E9BB279395F6958795EC
:1007600077956795B795F111F8CFFAF4BB0F11F4AF
:1007700060FF1BC06F5F7F4F8F4F9F4F16C0882356
:1007800011F096E911C0772321F09EE8872F762F8C
:1007900005C0662371F096E8862F70E060E02AF0CD
:1007A0009A95660F771F881FDAF7880F96958795B9
:1007B00097F9089597F99F6780E870E060E00895E1
:1007C0009FEF80EC089500240A9416161706180669
:1007D0000906089500240A94121613061406050645
:1007E0000895092E0394000C11F4882352F0BB0FD6
:1007F00040F4BF2B11F460FF04C06F5F7F4F8F4F39
:100800009F4F089557FD9058440F551F59F05F3F73
:1008100071F04795880F97FB991F61F09F3F79F022
:1008200087950895121613061406551FF2CF4695A4
:10083000F1DF08C0161617061806991FF1CF869526
:100840007105610508940895E894BB27662777270A
:10085000CB0197F9089597FB072E16F4009406D064
:1008600077FD08D00BD007FC05D03EF4909581951C
:100870009F4F0895709561957F4F0895AA1BBB1BEC
:1008800051E107C0AA1FBB1FA617B70710F0A61B90
:10089000B70B881F991F5A95A9F780959095BC01B1
:0808A000CD010895F894FFCF8B
:1008A8000000010000010100000201000003010036
:1008B8000004010000050100000601000007010016
:1008C8000100010001010100010201000103010012
:1008D80001040100010501000106010001070100F2
:1008E80002000100020101000202010002030100EE
:1008F80002040100020501000206010002070100CE
:1009080003000101030101000302010103030100C7
:1009180003040100030501000306010003070100A9
:00000001FF
