S00F000070726F6A6563742E737265631E
S113000029C00000DEC0000003C1000028C10000B8
S11300103CC000003AC0000038C0000036C00000F8
S113002034C0000014C30000EBC20000C2C20000D0
S11300302CC000002AC0000028C0000026C0000018
S113004024C0000022C0000020C000001EC0000028
S11300501CC0000011241FBECFE5D8E0DEBFCDBF19
S113006010E0A0E6B0E0ECE9F9E002C005900D92E2
S1130070A23FB107D9F721E0A2EFB0E001C01D9281
S1130080A033B207E1F72ED287C4BACFE0E6F0E09E
S113009020EE30E061E070E0808181111BC083813B
S11300A081110BC04AB3CB01018002C0880F991F94
S11300B00A94E2F7842B8ABB63C09AB3AB01018034
S11300C002C0440F551F0A94E2F7842F80958923B8
S11300D08ABB56C08130D9F4838181110BC047B3E8
S11300E0CB01018002C0880F991F0A94E2F7842B88
S11300F087BB46C097B3AB01018002C0440F551FB4
S11301000A94E2F7842F8095892387BB39C0823013
S1130110D9F4838181110BC044B3CB01018002C0A7
S1130120880F991F0A94E2F7842B84BB29C094B3E7
S1130130AB01018002C0440F551F0A94E2F7842FDB
S11301408095892384BB1CC08330D1F483818111C1
S11301500BC041B3CB01018002C0880F991F0A94E0
S1130160E2F7842B81BB0CC091B3AB01018002C0C8
S1130170440F551F0A94E2F7842F8095892381BB8D
S11301803496E217F30709F087CF08958BB780649C
S11301908BBF85B78D7F85BF85B7816085BF8BB7E2
S11301A080688BBF85B7877F85BF85B7846085BF2F
S11301B08FB780688FBF08959093F9008093F800FB
S11301C008951F920F920FB60F9211242F933F930D
S11301D04F935F936F937F938F939F93AF93BF934B
S11301E0EF93FF93E091F800F091F9000995FF91E6
S11301F0EF91BF91AF919F918F917F916F915F919B
S11302004F913F912F910F900FBE0F901F90189513
S11302101F920F920FB60F9211242F933F934F9377
S11302205F936F937F938F939F93AF93BF93EF935A
S1130230FF93E091FA00F091FB000995FF91EF9193
S1130240BF91AF919F918F917F916F915F914F91EA
S11302503F912F910F900FBE0F901F9018951F92F2
S11302600F920FB60F9211242F933F934F935F93E6
S11302706F937F938F939F93AF93BF93EF93FF936A
S1130280E091FC00F091FD000995FF91EF91BF9181
S1130290AF919F918F917F916F915F914F913F911A
S11302A02F910F900FBE0F901F901895982F907F4D
S11302B09BBBC198C39AE1EEF4E03197F1F700C01B
S11302C00000C398E1EEF4E03197F1F700C00000BC
S11302D0F0E18F9FC00111248BBBC39A81EE94E09F
S11302E00197F1F700C00000C398E1EEF4E0319704
S11302F0F1F700C00000089580EF8ABB87B38E60D9
S113030087BB80E28BBBC39A81EE94E00197F1F73F
S113031000C00000C39881EE94E00197F1F700C09B
S1130320000088E2C3DF81EE94E00197F1F700C09A
S113033000008FE0BBDF81EE94E00197F1F700C08D
S1130340000080E8B3CF0895982F907F9BBBC19A9B
S1130350C39AE1EEF4E03197F1F700C00000C398CE
S1130360E1EEF4E03197F1F700C00000F0E18F9F77
S1130370C00111248BBBC39A81EE94E00197F1F77D
S113038000C00000C398E1EEF4E03197F1F700C03B
S113039000000895CF93DF93EC018881882329F02E
S11303A02196D2DF89918111FCCFDF91CF910895FD
S11303B020E4829FC00111248068860F77DF80E1EA
S11303C08A95F1F700C008958091F2009091F300AE
S11303D001969093F3008093F2008B3D92406CF071
S11303E012BE1092F7001092F6001092F5001092CF
S11303F0F4001092F3001092F20008958091F60038
S11304009091F700019709F061C08091F4009091F8
S1130410F500892B61F412BE81E090E09093F50021
S11304208093F4001092F3001092F200089522B722
S113043080E090E09091F200820F911D62ED71E0F6
S113044051D2072E000C880B990BC0D16093FE008B
S11304507093FF00809300019093010160E081E0BC
S1130460A7DF20E030E040E850E46091FE007091A6
S1130470FF00809100019091010110D174D1DC0141
S1130480CB014AE062E071E054D2A2E0B1E00D9009
S11304900020E9F7119785E0E0EEF0E001900D927D
S11304A08A95E1F782E091E075DF2FEF83EF91E029
S11304B0215080409040E1F700C000001092F3000A
S11304C01092F2001092F5001092F40008958FB586
S11304D0826A8FBD8EB58B618EBD87E893E197BD2F
S11304E086BD0895F4DF08DF85EE90E053DF8FE3E7
S11304F09CE90197F1F700C0000048DE789447D0EA
S113050084EE91E03FD0C2DD929ACC24C394D12CE6
S11305100F2EF0EDEF2EF12CF02D0CE711E0C8E5D5
S1130520D2E08EEF91E048DE8091F6009091F700E2
S1130530892B49F4909A90E59A95F1F79098D09286
S1130540F700C092F6008FE99FE00197F1F700C031
S11305500000FBBCEABC8FEC97E00197F1F700C008
S113056000001BBD0ABD8FE99FE00197F1F700C0B1
S11305700000DBBDCABD8FE99FE00197F1F700C021
S11305800000CFCF90932F0180932E01089512BEC7
S113059083B78F7B83BF83B7877F83BF83B7887F0E
S11305A0816083BF89B7816089BF89B78D7F89BF27
S11305B008951F920F920FB60F9211242F933F9319
S11305C04F935F936F937F938F939F93AF93BF9357
S11305D0EF93FF93E0912E01F0912F010995FF9184
S11305E0EF91BF91AF919F918F917F916F915F91A7
S11305F04F913F912F910F900FBE0F901F90189520
S11306001F920F920FB60F9211242F933F934F9383
S11306105F936F937F938F939F93AF93BF93EF9366
S1130620FF93E0912A01F0912B010995FF91EF913D
S1130630BF91AF919F918F917F916F915F914F91F6
S11306403F912F910F900FBE0F901F9018951F92FE
S11306500F920FB60F9211242F933F934F935F93F2
S11306606F937F938F939F93AF93BF93EF93FF9376
S1130670E0912C01F0912D010995FF91EF91BF912B
S1130680AF919F918F917F916F915F914F913F9126
S11306902F910F900FBE0F901F9018955058BB27A5
S11306A0AA270ED0E5C0D6D030F0DBD020F031F44C
S11306B09F3F11F41EF4CBC00EF4E095E7FBC1C0DC
S11306C0E92FE7D080F3BA17620773078407950709
S11306D018F071F49EF5FFC00EF4E0950B2EBA2FBE
S11306E0A02D0B01B90190010C01CA01A001112434
S11306F0FF27591B99F0593F50F4503E68F11A16E0
S1130700F040A22F232F342F4427585FF3CF469570
S113071037952795A795F0405395C9F77EF41F1692
S1130720BA0B620B730B840BBAF09150A1F0FF0F5C
S1130730BB1F661F771F881FC2F70EC0BA0F621F48
S1130740731F841F48F4879577956795B795F79538
S11307509E3F08F0B3CF9395880F08F09927EE0FCA
S113076097958795089504D06894B111B5C00895FC
S113077098D088F09F5790F0B92F9927B751A0F0DF
S1130780D1F0660F771F881F991F1AF0BA95C9F721
S113079012C0B13081F09FD0B1E008959CC0672FA2
S11307A0782F8827B85F39F0B93FCCF386957795D1
S11307B06795B395D9F73EF49095809570956195BA
S11307C07F4F8F4F9F4F0895E89409C097FB3EF4E5
S11307D090958095709561957F4F8F4F9F4F99238A
S11307E0A9F0F92F96E9BB279395F6958795779508
S11307F06795B795F111F8CFFAF4BB0F11F460FFC8
S11308001BC06F5F7F4F8F4F9F4F16C0882311F01F
S113081096E911C0772321F09EE8872F762F05C033
S1130820662371F096E8862F70E060E02AF09A95CE
S1130830660F771F881FDAF7880F9695879597F9C3
S1130840089597F99F6780E870E060E008959FEF4E
S113085080EC089500240A94161617061806090653
S1130860089500240A941216130614060506089522
S1130870092E0394000C11F4882352F0BB0F40F4AA
S1130880BF2B11F460FF04C06F5F7F4F8F4F9F4FEA
S1130890089557FD9058440F551F59F05F3F71F06C
S11308A04795880F97FB991F61F09F3F79F08795D3
S11308B00895121613061406551FF2CF4695F1DF5C
S11308C008C0161617061806991FF1CF86957105EC
S11308D0610508940895E894BB2766277727CB0120
S11308E097F9089597FB072E16F4009406D077FD28
S11308F008D00BD007FC05D03EF4909581959F4F0E
S11309000895709561957F4F0895AA1BBB1B51E113
S113091007C0AA1FBB1FA617B70710F0A61BB70B6B
S1130920881F991F5A95A9F780959095BC01CD0110
S11309300895BB274A3031F4992322F4BDE29095FF
S113094081959F4F01C0BB27FB015527AA27880F1C
S1130950991FAA1FA41710F0A41B83955051B9F72F
S1130960A05DAA3308F0A95DA193009779F7B111AE
S1130970B1931192CB0100C0DC01FC01672F71918E
S11309807723E1F7329704C07C916D937083629171
S10F0990AE17BF07C8F30895F894FFCF1A
S113099C000001000001010000020100000301003D
S11309AC000401000005010000060100000701001D
S11309BC0100010001010100010201000103010019
S11309CC01040100010501000106010001070100F9
S11309DC02000100020101000202010002030100F5
S11309EC02040100020501000206010002070100D5
S11309FC03000100030101000302010103030100D0
S1130A0C03040100030501000306010003070100B0
S1130A1C20636D200044697374616E63652069738F
S1050A2C0000C4
S9030000FC
