:1000000029C00000F9C000001EC1000043C100006B
:100010003CC000003AC0000038C0000036C00000FC
:1000200034C00000FDC30000C0C3000097C300003F
:100030002CC000002AC0000028C0000026C000001C
:1000400024C0000022C0000020C000001EC000002C
:100050001CC0000011241FBECFE5D8E0DEBFCDBF1D
:1000600010E0A0E6B0E0E6ECFBE002C005900D92E7
:10007000A23FB107D9F721E0A2EFB0E001C01D9285
:10008000AC33B207E1F755D29CC5BACFE0E6F0E059
:1000900020EE30E061E070E0808181111BC083813F
:1000A00081110BC04AB3CB01018002C0880F991F98
:1000B0000A94E2F7842B8ABB63C09AB3AB01018038
:1000C00002C0440F551F0A94E2F7842F80958923BC
:1000D0008ABB56C08130D9F4838181110BC047B3EC
:1000E000CB01018002C0880F991F0A94E2F7842B8C
:1000F00087BB46C097B3AB01018002C0440F551FB8
:100100000A94E2F7842F8095892387BB39C0823017
:10011000D9F4838181110BC044B3CB01018002C0AB
:10012000880F991F0A94E2F7842B84BB29C094B3EB
:10013000AB01018002C0440F551F0A94E2F7842FDF
:100140008095892384BB1CC08330D1F483818111C5
:100150000BC041B3CB01018002C0880F991F0A94E4
:10016000E2F7842B81BB0CC091B3AB01018002C0CC
:10017000440F551F0A94E2F7842F8095892381BB91
:100180003496E217F30709F087CF089535C3089531
:10019000AB98AC9AAD98AE9A0895880F982F990FA6
:1001A000990F890F34C3089537C30895AB98AC985D
:1001B000AE98AD980895AE98AD980895AC98AB9868
:1001C00008958BB780648BBF85B78D7F85BF85B75A
:1001D000816085BF8BB780688BBF85B7877F85BF00
:1001E00085B7846085BF8FB780688FBF089590936F
:1001F00001018093000108951F920F920FB60F9294
:1002000011242F933F934F935F936F937F938F931B
:100210009F93AF93BF93EF93FF93E0910001F09111
:1002200001010995FF91EF91BF91AF919F918F913E
:100230007F916F915F914F913F912F910F900FBEE2
:100240000F901F9018951F920F920FB60F921124C6
:100250002F933F934F935F936F937F938F939F93CE
:10026000AF93BF93EF93FF93E0910201F0910301ED
:100270000995FF91EF91BF91AF919F918F917F91E0
:100280006F915F914F913F912F910F900FBE0F9003
:100290001F9018951F920F920FB60F9211242F9353
:1002A0003F934F935F936F937F938F939F93AF93FE
:1002B000BF93EF93FF93E0910401F091050109953D
:1002C000FF91EF91BF91AF919F918F917F916F912E
:1002D0005F914F913F912F910F900FBE0F901F9004
:1002E0001895982F907F9BBBC198C39AE1EEF4E0DC
:1002F0003197F1F700C00000C398E1EEF4E03197C8
:10030000F1F700C00000F0E18F9FC00111248BBB0A
:10031000C39A81EE94E00197F1F700C00000C39802
:10032000E1EEF4E03197F1F700C00000089580EFAE
:100330008ABB87B38E6087BB80E28BBBC39A81EE9A
:1003400094E00197F1F700C00000C39881EE94E0BB
:100350000197F1F700C0000088E2C3DF81EE94E06E
:100360000197F1F700C000008FE0BBDF81EE94E061
:100370000197F1F700C0000080E8B3CF0895982FEF
:10038000907F9BBBC19AC39AE1EEF4E03197F1F7FD
:1003900000C00000C398E1EEF4E03197F1F700C02F
:1003A0000000F0E18F9FC00111248BBBC39A81EE46
:1003B00094E00197F1F700C00000C398E1EEF4E08B
:1003C0003197F1F700C000000895CF93DF93EC015F
:1003D0008881882329F02196D2DF89918111FCCF71
:1003E000DF91CF91089520E4829FC001112480689D
:1003F000860F77DF80E18A95F1F700C0089580913C
:10040000FA009091FB0001969093FB008093FA0014
:100410008B3D92406CF012BE1092FF001092FE00D5
:100420001092FD001092FC001092FB001092FA0056
:1004300008958091FE009091FF00019709F069C036
:100440008091FC009091FD00892B61F412BE81E047
:1004500090E09093FD008093FC001092FB001092BE
:10046000FA00089522B780E090E09091FA00820FA0
:10047000911D62ED71E04BD3072E000C880B990B98
:1004800092D26093060170930701809308019093C4
:10049000090160E081E0A7DF20E030E040E850E4BF
:1004A0006091060170910701809108019091090106
:1004B000DED16093320170933301809334019093C5
:1004C00035013ED2DC01CB014AE06AE071E046D35F
:1004D000AAE0B1E00D900020E9F7119785E0E0EE89
:1004E000F0E001900D928A95E1F78AE091E06DDFEE
:1004F0002FEF83EF91E0215080409040E1F700C062
:1005000000001092FB001092FA001092FD00109271
:10051000FC00089524E180E090E0FC013197F1F7C0
:10052000FC013197F1F7FC013197F1F72150A9F760
:100530000895FDDE85EE90E048DF8FE39CE90197AA
:10054000F1F700C000003DDE7894F6D01FDE8FEF9B
:1005500091E0EDD09BDDAA24A394B12C01E610E03C
:10056000C7E1D2E089E192E042DE8091FE00909105
:10057000FF00892B49F4909A90E59A95F1F79098AD
:10058000B092FF00A092FE001BBD0ABDC3DF8091A8
:10059000320190913301A0913401B09135018093E3
:1005A000F6009093F700A093F800B093F900DBBD3C
:1005B000CABDB0DFC0903201D0903301E090340169
:1005C000F0903501C092F200D092F300E092F40076
:1005D000F092F5004090F6005090F7006090F8001F
:1005E0007090F90020E030E0A901C301B2018BD284
:1005F00088237CF020E030E040E451E4C301B20104
:100600009BD1181634F0D2DDD6DDCEDD88E2C5DD13
:10061000A9CF20E030E0A901C701B60174D2882338
:100620007CF020E030E040E451E4C701B60184D121
:1006300018167CF0BBDDC2DDB7DD88E2AEDD92CFFF
:1006400020E030E0A901C701B6015DD288230CF497
:1006500068C020E030E0A901C301B20154D2882370
:100660000CF45FC020E030E040E451E4C701B60183
:1006700063D118160CF455C020E030E040E451E49A
:10068000C301B20159D118160CF44BC08FDD81E0C3
:100690007FDD8ADD88E281DD8FEC97E00197F1F75D
:1006A00000C0000083DDC090F600D090F700E0901D
:1006B000F800F090F90020E030E0A901C701B60190
:1006C00022D2882374F020E030E040E451E4C701F6
:1006D000B60132D118162CF06EDD66DD88E25DDDE4
:1006E00041CFC090F200D090F300E090F400F09081
:1006F000F50020E030E0A901C701B60104D288234B
:100700000CF430CF20E030E040E451E4C701B60102
:1007100013D118160CF426CF51DD46DD88E23DDDFD
:1007200021CF80E035DD40DD88E237DD1BCF9093BF
:100730003B0180933A01089512BE83B78F7B83BF3C
:1007400083B7877F83BF83B7887F816083BF89B783
:10075000816089BF89B78D7F89BF08951F920F92ED
:100760000FB60F9211242F933F934F935F936F9384
:100770007F938F939F93AF93BF93EF93FF93E091FA
:100780003A01F0913B010995FF91EF91BF91AF9133
:100790009F918F917F916F915F914F913F912F9199
:1007A0000F900FBE0F901F9018951F920F920FB6CB
:1007B0000F9211242F933F934F935F936F937F93E7
:1007C0008F939F93AF93BF93EF93FF93E091360185
:1007D000F09137010995FF91EF91BF91AF919F91F2
:1007E0008F917F916F915F914F913F912F910F90DA
:1007F0000FBE0F901F9018958FB5816A8FBD8EB573
:1008000084608EBD87E893E197BD86BD089590E032
:10081000889699BD88BD08958FB581608FBD089574
:100820001F920F920FB60F9211242F933F934F9365
:100830005F936F937F938F939F93AF93BF93EF9348
:10084000FF93E0913801F09139010995FF91EF9103
:10085000BF91AF919F918F917F916F915F914F91D8
:100860003F912F910F900FBE0F901F9018955058E9
:10087000BB27AA270ED00DC1FED030F003D120F047
:1008800031F49F3F11F41EF4F3C00EF4E095E7FB42
:10089000E9C0E92F0FD180F3BA1762077307840705
:1008A000950718F071F49EF527C10EF4E0950B2E14
:1008B000BA2FA02D0B01B90190010C01CA01A001B2
:1008C0001124FF27591B99F0593F50F4503E68F10D
:1008D0001A16F040A22F232F342F4427585FF3CF4E
:1008E000469537952795A795F0405395C9F77EF41F
:1008F0001F16BA0B620B730B840BBAF09150A1F068
:10090000FF0FBB1F661F771F881FC2F70EC0BA0FED
:10091000621F731F841F48F4879577956795B79575
:10092000F7959E3F08F0B3CF9395880F08F099276D
:10093000EE0F97958795089571D008F481E008959A
:1009400004D06894B111D9C00895BCD088F09F57E5
:1009500090F0B92F9927B751A0F0D1F0660F771F0B
:10096000881F991F1AF0BA95C9F712C0B13081F0EB
:10097000C3D0B1E00895C0C0672F782F8827B85F33
:1009800039F0B93FCCF3869577956795B395D9F74C
:100990003EF490958095709561957F4F8F4F9F4F56
:1009A0000895E89409C097FB3EF490958095709562
:1009B00061957F4F8F4F9F4F9923A9F0F92F96E9AB
:1009C000BB279395F695879577956795B795F11120
:1009D000F8CFFAF4BB0F11F460FF1BC06F5F7F4FBD
:1009E0008F4F9F4F16C0882311F096E911C07723CF
:1009F00021F09EE8872F762F05C0662371F096E8D8
:100A0000862F70E060E02AF09A95660F771F881FA6
:100A1000DAF7880F9695879597F90895990F00084A
:100A2000550FAA0BE0E8FEEF16161706E807F907C0
:100A3000C0F012161306E407F50798F0621B730B5B
:100A4000840B950B39F40A2661F0232B242B252BDC
:100A500021F408950A2609F4A140A6958FEF811D7F
:100A6000811D089597F99F6780E870E060E0089520
:100A70009FEF80EC089500240A94161617061806B6
:100A80000906089500240A94121613061406050692
:100A90000895092E0394000C11F4882352F0BB0F23
:100AA00040F4BF2B11F460FF04C06F5F7F4F8F4F86
:100AB0009F4F089557FD9058440F551F59F05F3FC1
:100AC00071F04795880F97FB991F61F09F3F79F070
:100AD00087950895121613061406551FF2CF4695F2
:100AE000F1DF08C0161617061806991FF1CF869574
:100AF0007105610508940895E894BB276627772758
:100B0000CB0197F908958ADF08F48FEF089597FBDA
:100B1000072E16F4009406D077FD08D00BD007FC02
:100B200005D03EF4909581959F4F089570956195FD
:100B30007F4F0895AA1BBB1B51E107C0AA1FBB1F13
:100B4000A617B70710F0A61BB70B881F991F5A9559
:100B5000A9F780959095BC01CD010895BB274A3037
:100B600031F4992322F4BDE2909581959F4F01C005
:100B7000BB27FB015527AA27880F991FAA1FA41777
:100B800010F0A41B83955051B9F7A05DAA3308F06B
:100B9000A95DA193009779F7B111B1931192CB019F
:100BA00000C0DC01FC01672F71917723E1F73297D8
:100BB00004C07C916D9370836291AE17BF07C8F338
:060BC0000895F894FFCF38
:100BC6000000010000010100000201000003010015
:100BD60000040100000501000006010000070100F5
:100BE60001000100010101000102010001030100F1
:100BF60001040100010501000106010001070100D1
:100C060002000100020101000202010002030100CC
:100C160002040100020501000206010002070100AC
:100C260003000100030101000302010103030100A7
:100C36000304010003050100030601000307010088
:100C460020636D200044697374616E636520697367
:020C560000009C
:00000001FF
